:100000000C946B000C9488000C9488000C9488006D
:100010000C9488000C9488000C9488000C94880040
:100020000C9488000C9488000C9488000C94880030
:100030000C9488000C9488000C9488000C94880020
:100040000C9488000C9488000C9488000C94880010
:100050000C94880007634236B79BD8A71A396856B4
:1000600018AEBAAB558C1D3CB7CC5763BD6DEDFDDA
:10007000753EF6177231BF000000803F0800000097
:10008000BE922449123EABAAAA2ABECDCCCC4C3E8D
:1000900000000080BEABAAAAAA3E00000000BF007C
:1000A0000000803F0000000000084178D3BB438778
:1000B000D1133D190E3CC3BD4282AD2B3E68EC828C
:1000C00076BED98FE1A93E4C80EFFFBE01C4FF7F11
:1000D0003F000000000011241FBECFE5D8E0DEBFC6
:1000E000CDBF10E0A0E6B0E0ECE7FBE002C0059079
:1000F0000D92AA36B107D9F720E0AAE6B0E001C018
:100100001D92A038B207E1F70E946C010C94BC0567
:100110000C94000011B880EC80B9089594EA96BF61
:1001200006B607FEFDCF91B1987F983071F483B980
:1001300084E886BF06B607FEFDCF81B1887F88318F
:1001400031F0803231F083E0089580E0089581E05D
:10015000089582E0089594EA96BF06B607FEFDCFA3
:1001600091B1987F903171F483B984E886BF06B667
:1001700007FEFDCF81B1887F803431F0883431F0C3
:1001800083E0089580E0089581E0089582E0089575
:1001900083B984E886BF06B607FEFDCF81B1887FAC
:1001A000883221F0803321F082E0089580E00895C4
:1001B00081E0089584EC86BF06B607FEFDCF83B1CB
:1001C000089584E886BF06B607FEFDCF83B1089583
:1001D00084E986BF06B604FCFDCF0895CF93C82FEF
:1001E00080ED0E948E008C2F0E94C80081ED0E943D
:1001F000AB000E94DA0090E0909371008093700051
:100200000E94DA0090E090937300809372000E9445
:10021000E10090E090937700809376000E94E800E0
:10022000CF910895805A9F4FFC01808188BB8FE059
:1002300097E20197F1F700C0000008950F931F9314
:10024000CF936AE070E00E9494058C01709379006E
:10025000609378008DEF8BBB80917800909179004E
:100260000E941201CFE0CBBB10936D0000936C0095
:100270008EEF8BBB80916C0090916D000E941201FB
:10028000CBBBCF911F910F9108950F931F93CF93E5
:100290006AE070E00E9494058C017093790060938D
:1002A00078008BEF8BBB80917800909179000E9451
:1002B0001201CFE0CBBB10936D0000936C0087EF71
:1002C0008BBB80916C0090916D000E941201CBBBA2
:1002D000CF911F910F9108958FEF87BB8EEF8ABB4F
:1002E0000E948A000F2EF6E76F2EF0E07F2EF02D91
:1002F000312CCC24C3946894DD24D7F80F2EF2E778
:100300004F2EF0E05F2EF02DEE24E394F12C80E0F0
:100310000E94EE00F3012080C0E0D0E0032D10E049
:10032000C6010C2E02C0880F991F0A94E2F78221A1
:10033000F1F0BE010D2E000C880B990B0E94A40257
:100340009B01AC0160E070E080E090E40E9430032B
:100350004B015C01B801110F880B990B0E94A4029C
:10036000A50194010E9400020E946C028B0121965B
:10037000C530D105A9F6C8010E941E018FE097E2A1
:100380000197F1F700C00000F2012080C0E0D0E04A
:10039000032D10E0C7010C2E02C0880F991F0A948C
:1003A000E2F78221F1F0BE010D2E000C880B990BB3
:1003B0000E94A4029B01AC0160E070E080E090E448
:1003C0000E9430034B015C01B801110F880B990B9F
:1003D0000E94A402A50194010E9400020E946C02E6
:1003E0008B012196C630D105A9F6C8010E944501AE
:1003F0008FE097E20197F1F700C0000088CF5058D6
:10040000BB27AA270E9417020C94F6020E94E8025A
:1004100038F00E94EF0220F039F49F3F19F426F4DF
:100420000C94E5020EF4E095E7FB0C94DF02E92F53
:100430000E94070358F3BA176207730784079507EA
:1004400020F079F4A6F50C9429030EF4E0950B2E18
:10045000BA2FA02D0B01B90190010C01CA01A00116
:100460001124FF27591B99F0593F50F4503E68F171
:100470001A16F040A22F232F342F4427585FF3CFB2
:10048000469537952795A795F0405395C9F77EF483
:100490001F16BA0B620B730B840BBAF09150A1F0CC
:1004A000FF0FBB1F661F771F881FC2F70EC0BA0F52
:1004B000621F731F841F48F4879577956795B795DA
:1004C000F7959E3F08F0B0CF9395880F08F09927D5
:1004D000EE0F9795879508950E9473026894B11165
:1004E0000C942A0308950E940F0388F09F5798F0F8
:1004F000B92F9927B751B0F0E1F0660F771F881F29
:10050000991F1AF0BA95C9F714C0B13091F00E9442
:100510002903B1E008950C942903672F782F8827C9
:10052000B85F39F0B93FCCF3869577956795B39569
:10053000D9F73EF490958095709561957F4F8F4FD8
:100540009F4F0895E89409C097FB3EF490958095DD
:10055000709561957F4F8F4F9F4F9923A9F0F92F89
:1005600096E9BB279395F695879577956795B79507
:10057000F111F8CFFAF4BB0F11F460FF1BC06F5FED
:100580007F4F8F4F9F4F16C0882311F096E911C0FF
:10059000772321F09EE8872F762F05C0662371F020
:1005A00096E8862F70E060E02AF09A95660F771F34
:1005B000881FDAF7880F9695879597F9089597F928
:1005C0009F6780E870E060E008959FEF80EC0895F9
:1005D00000240A9416161706180609060895002422
:1005E0000A9412161306140605060895092E03949C
:1005F000000C11F4882352F0BB0F40F4BF2B11F410
:1006000060FF04C06F5F7F4F8F4F9F4F089557FD6E
:100610009058440F551F59F05F3F71F04795880F70
:1006200097FB991F61F09F3F79F087950895121607
:1006300013061406551FF2CF4695F1DF08C01616B3
:1006400017061806991FF1CF869571056105089464
:100650000895E894BB2766277727CB0197F908957B
:10066000FA01EE0FFF1F309621053105A1F161154A
:10067000710561F48038BFE39B0749F168949038B5
:10068000810561F08038BFEF9B0741F099234AF55F
:10069000FF3FE1053105210519F1E8940894E7953C
:1006A000D901AA2329F4AB2FBE2FF85FD0F310C0D5
:1006B000FF5F70F4A695E0F7F73950F019F0FF3AB4
:1006C00038F49F779F930DD00F9007FC90580895B2
:1006D00046F00C94E50260E070E080E89FE3089546
:1006E0004FE79F775F934F933F932F930E942B0485
:1006F0002F913F914F915F910E94A7040C94880322
:1007000029F416F00C94DF020C9429030C94E502F2
:100710000E940F03A8F39638A0F707F80F92E89409
:100720002BE33AEA48EB5FE70E94BD040F920F9279
:100730000F924DB75EB70F920E947304E4E5F0E0AC
:100740000E94BA034F915F91EF91FF91E595EE1FE3
:10075000FF1F49F0FE57E0684427EE0F441FFA954B
:10076000E1F74195550B0E94ED030F9007FE0C94A5
:10077000E1030895DF93CF931F930F93FF92EF92BE
:10078000DF927B018C01689406C0DA2EEF010E9493
:10079000BA04FE01E894A5912591359145915591B2
:1007A000A6F3EF010E941702FE019701A801DA9457
:1007B00069F7DF90EF90FF900F911F91CF91DF913C
:1007C00008959B01AC0160E070E080E89FE30C9429
:1007D00014050C94DF020C9486050E940F03D8F3D5
:1007E0009923C9F3940F511DA3F39150504094F0F5
:1007F00059F0882332F0660F771F881F91505040C0
:10080000C1F79E3F51052CF7880F911D969587954E
:1008100097F908955F3FACF0983E9CF0BB27869512
:1008200077956795B79508F4B1609395C1F7BB0FBD
:1008300058F711F460FFE8CF6F5F7F4F8F4F9F4FE6
:10084000E3CF0C942A0316F00C9486050C94E50271
:1008500068940C94DF020E940F03A8F39923C1F35C
:10086000AEF3DF93CF931F930F93FF92C92FDD2732
:1008700088232AF02197660F771F881FDAF720E078
:1008800030E040E85FEB9FE3883920F0803E38F0AD
:1008900021968F770E940002ECE7F0E004C00E94EE
:1008A0000002E9EAF0E00E94BA038B01BE01EC010C
:1008B000FB2E6F5771097595771F880B990B0E9456
:1008C000A40228E132E741E35FE30E94BA04AF2DBE
:1008D0009801AE01FF900F911F91CF91DF910E947F
:1008E00017020C94F602FA01DC01AA0FBB1F9B0150
:1008F000AC01BF5728F4222733274427507820C063
:10090000B75190F4AB2F0024469537952795011CDD
:10091000A395D2F3002071F0220F331F441FB3952B
:10092000DAF30ED00C94FF0161307105A0E88A075C
:10093000B94630F49B01AC01662777278827907869
:10094000309621F0208331834283538308950E949F
:10095000BA040C94F6020E94E80238F00E94EF02FA
:1009600020F0952311F00C94DF020C94E502112481
:100970000C942A030E94070370F3959FC1F3950F0F
:1009800050E0551F629FF001729FBB27F00DB11D13
:10099000639FAA27F00DB11DAA1F649F6627B00DA3
:1009A000A11D661F829F2227B00DA11D621F739F8C
:1009B000B00DA11D621F839FA00D611D221F749F9A
:1009C0003327A00D611D231F849F600D211D822FE1
:1009D000762F6A2F11249F5750409AF0F1F0882308
:1009E0004AF0EE0FFF1FBB1F661F771F881F915035
:1009F0005040A9F79E3F510580F00C94DF020C9403
:100A00002A035F3FE4F3983ED4F386957795679584
:100A1000B795F795E7959F5FC1F7FE2B880F911D5E
:100A20009695879597F908950E9428050C94F602EB
:100A30000E94EF0258F00E94E80240F029F45F3F64
:100A400029F00C94DF0251110C942A030C94E50256
:100A50000E94070368F39923B1F3552391F3951B83
:100A6000550BBB27AA2762177307840738F09F5FCF
:100A70005F4F220F331F441FAA1FA9F335D00E2E3C
:100A80003AF0E0E832D091505040E695001CCAF7A9
:100A90002BD0FE2F29D0660F771F881FBB1F26176C
:100AA00037074807AB07B0E809F0BB0B802DBF0143
:100AB000FF2793585F4F3AF09E3F510578F00C9412
:100AC000DF020C942A035F3FE4F3983ED4F386954B
:100AD00077956795B795F7959F5FC9F7880F911D33
:100AE0009695879597F90895E1E0660F771F881F1F
:100AF000BB1F621773078407BA0720F0621B730BD2
:100B0000840BBA0BEE1F88F7E09508959F3F31F0F4
:100B1000915020F4879577956795B795880F911D2B
:100B20009695879597F9089597FB072E16F40094EC
:100B300007D077FD09D00E94A80507FC05D03EF438
:100B4000909581959F4F0895709561957F4F089579
:100B5000AA1BBB1B51E107C0AA1FBB1FA617B707E3
:100B600010F0A61BB70B881F991F5A95A9F78095FF
:0C0B70009095BC01CD010895F894FFCFD2
:0A0B7C003F065B4F666D7D077F6F3B
:00000001FF
